:020000040800F2
:10000000200C002031030008B10A00088107000815
:10001000790900089D0600088B24000800000000F4
:10002000000000000000000000000000790200084D
:10003000A106000800000000CD02000845130008DA
:100040004B0300084B0300084B0300084B03000858
:100050004B0300084B0300084B0300084B03000848
:100060004B0300084B0300084B0300084B03000838
:100070004B0300084B0300084B0300084B03000828
:100080004B0300084B0300084B0300084B03000818
:100090004B0300084B0300084B0300084B03000808
:1000A0004B0300084B0300084B0300084B030008F8
:1000B0004B0300084B0300084B0300084B030008E8
:1000C0004B0300084B0300084B0300084B030008D8
:1000D0004B03000845220008792200084B03000862
:1000E0004B0300084B0300084B0300084B030008B8
:1000F0004B0300084B0300084B0300084B030008A8
:100100004B0300084B0300084B0300084B03000897
:100110004B030008A9210008FD1700084B03000845
:100120004B0300084B0300084B0300084B03000877
:100130004B0300084B0300084B0300084B03000867
:100140004B0300084B0300084B0300084B03000857
:100150004B0300084B0300084B0300084B03000847
:100160004B0300084B0300084B0300084B03000837
:100170004B0300084B0300084B0300084B03000827
:100180004B0300084B03000800F002F800F064F88D
:100190000AA090E8000C82448344AAF10107DA45E2
:1001A00001D100F059F8AFF2090EBAE80F0013F0D0
:1001B000010F18BFFB1A43F0010318471C3700005A
:1001C0003C3700000A444FF0000C10F8013B13F0DC
:1001D000070408BF10F8014B1D1108BF10F8015BA0
:1001E000641E05D010F8016B641E01F8016BF9D193
:1001F00013F0080F1EBF10F8014BAD1C0C1B09D1EA
:100200006D1E58BF01F801CBFAD505E014F8016B5B
:1002100001F8016B6D1EF9D59142D6D370470000ED
:100220000023002400250026103A28BF78C1FBD8FF
:10023000520728BF30C148BF0B607047642900F0E7
:100240001781732900F0DD81002070471FB503F08E
:1002500025FA1FBD10B510BD00F0EEF91146FFF7ED
:10026000F5FF02F08BF900F00CFA03B4FFF7F2FF90
:1002700003BC02F00CF900002A4B19680868B0E8CA
:10028000F04F80F30988BFF36F8F4FF0000080F3C9
:10029000118870470000000006480068006880F37D
:1002A000088862B661B6BFF34F8FBFF36F8F00DF70
:1002B00000BF00BF08ED00E0DFF80C00016841F46A
:1002C00070010160704700BF88ED00E0EFF3098026
:1002D000BFF36F8F134B1A681EF0100F08BF20ED8D
:1002E000108A20E9F04F106008B44FF0500080F3FE
:1002F0001188BFF34F8FBFF36F8F02F0B1FB4FF048
:10030000000080F3118808BC19680868B0E8F04F55
:100310001EF0100F08BFB0EC108A80F30988BFF3FD
:100320006F8F7047DC010020EFF3058070470000FD
:100330000948804709480047FEE7FEE7FEE7FEE779
:10034000FEE7FEE7FEE7FEE7FEE7FEE704480549B5
:10035000054A064B70470000551300088901000844
:1003600020060020200C002020080020200800206B
:10037000704700000FB4044910B503AA029800F0BA
:1003800045F910BC5DF814FBC40100200FB41CB586
:10039000074B06AA7B4469460090059800F007F9D0
:1003A0000020694600F016F91CBC5DF814FB000043
:1003B0003D0200002DE9F0410E4604460020206277
:1003C0002046E168884730B3252805D0D4E90121CB
:1003D0009047206A401CF2E7E168204600278847E2
:1003E000050018D0A5F14100192802D820354FF496
:1003F00000673246294620462760FFF71FFF40B1BD
:10040000012804D0F61D26F007060836D8E7361D69
:10041000D6E72846DAE7206ABDE8F08170B50C46D9
:100420000546012A05D02878800600D5EA69002310
:1004300002E0012305E05B1C934202D2E05C00284D
:10044000F9D1A869E618C01AA861286A1844286278
:100450002846AFF3008004E0D5E9012114F8010B30
:100460009047B442F8D32846AFF3008070BD000037
:100470002DE9F0410646002410687529314616A57D
:1004800010D0AFF30080002802DA404213A507E045
:1004900031688A0701D512A502E0490704D511A5E4
:1004A000012401E0AFF3008000210A2206F12407B5
:1004B00009E0B0FBF2FCB0FBF2F302FB1C003030B1
:1004C00078541846491C0028F3D123462A46304662
:1004D000BDE8F04100F00CB8000000002D00000065
:1004E0002B000000200000007047704770477047E5
:1004F0002DE9F0470D4699469246044600F124083E
:100500000168880604D5E06921F01001216000E04F
:100510000120A84201DD471B00E00027A1697A19EC
:1005200002EB0900081AA0612078C00602D4204618
:10053000AFF30080002608E0D4E901211AF8060094
:100540009047206A401C761C20624E45F4DB2078E0
:10055000C0060AD52046AFF3008006E0D4E90121A9
:1005600030209047206A401C2062381EA7F1010706
:10057000F4DC07E0D4E9012118F805009047206A6F
:10058000401C2062281EA5F10105F3DC2046AFF3D4
:1005900000802078000602D50220BDE8F087012007
:1005A000FBE7000001694A1C02610878704700B54A
:1005B0008FB0CDE901310021059105497944CDE99C
:1005C000031011466846FFF7F5FE0FB000BD0000AE
:1005D000E5FFFFFF0A6802F8010B0A60704710B5DB
:1005E000436913B1AFF3008001E0FFF717FF01206B
:1005F00010BD127800F124010A7000224A70012215
:10060000EDE711684FF0FF32E9E70000074B70B5E6
:100610000D467B44FFF7CBFF0446284600F008F860
:1006200010B14FF0FF3070BD204670BD4B1F000071
:10063000007B00F080007047754600F02BF8AE4656
:1006400005006946534620F00700854618B020B5DE
:10065000FFF77CFEBDE820404FF000064FF000079A
:100660004FF000084FF0000B21F00701AC46ACE85A
:10067000C009ACE8C009ACE8C009ACE8C0098D46C7
:10068000704710B50446AFF300802046BDE8104027
:10069000FFF7EBBD00487047BC05002000BFFEE738
:1006A0007047F0B50A4600210023002400BF3DE05A
:1006B000012505FA01F3156805EA03049C4234D1CB
:1006C00005684F000326BE40B543056015794E000E
:1006D000B5400668354305601579012D02D01579BE
:1006E000022D16D185684F000326BE40B5438560B4
:1006F00055794E00B54086683543856045680126CA
:100700008E40B5434560456896798E40B6B2354314
:100710004560C5684F000326BE40B543C560D57926
:100720004E00B540C6683543C560491C1029BFD38B
:10073000F0BDF0B5002300244D07ED0E02FA05F3DD
:10074000CE1000F1200555F826504E07F70E0F2663
:10075000BE40B543CF1000F1200646F82750CE101A
:1007600000F1200555F8265045EA0304CE1000F1AB
:10077000200545F82640F0BD41837047018370474E
:1007800000BFFEE71CB50121172000F0AFFA3C20A6
:10079000009001208DF8040000208DF80600022052
:1007A0008DF8050001208DF8070069462F48FFF7F6
:1007B00078FF4FF40840009001208DF804000020DD
:1007C0008DF8060002208DF8050001208DF8070045
:1007D00069462748FFF765FF2020009001208DF82B
:1007E000040000208DF8060002208DF8050001208D
:1007F0008DF8070069461F48FFF753FF4FF48050FC
:10080000009001208DF8040000208DF806000220E1
:100810008DF8050001208DF8070069461648FFF79E
:1008200040FF08211148FFF7A7FF04210F48FFF7F9
:10083000A3FF10210D48FFF79FFF20210B48FFF772
:100840009BFF4FF480510C48FFF796FF2021094889
:10085000FFF792FF4FF400610548FFF78DFF4FF45B
:1008600000410348FFF788FF1CBD00000000024064
:1008700000040240000802400010024030B58BB076
:1008800005460C460121022000F050FA0121042007
:1008900000F02CFA032206213548FFF74AFF032215
:1008A00007213348FFF745FF032208213048FFF7AF
:1008B00040FF032209212E48FFF73BFF4FF47070E1
:1008C000099002208DF8280003208DF829000020CF
:1008D0008DF82A0001208DF82B0009A92448FFF784
:1008E000E0FE0795ADF818400120ADF8200000208B
:1008F000ADF81A0006A91F4801F0AEFB6020ADF864
:1009000004000120ADF806000020ADF810004FF4FF
:10091000FA60039001A9174801F024FA01A91548CB
:1009200001F068FA01A9134801F0C4FA01A91148BD
:1009300001F01AFB01210F4801F092F908210D483E
:1009400001F04EFA08210B4801F0A6FA08210948E7
:1009500001F000FB0821074801F042FB0121054896
:1009600001F060F90121034801F06EF90BB030BDD0
:10097000000802400004014000BFFEE71CB5012151
:10098000102000F0B3F901208DF8040000208DF84C
:1009900006003C20009000208DF8070003208DF811
:1009A000050069460948FFF77CFE04210748FFF768
:1009B000E5FE08210548FFF7DFFE20210348FFF789
:1009C000DBFE10210148FFF7D9FE1CBD00100240DC
:1009D00070B504460D46002625B920211748FFF7BB
:1009E000CBFE05E0012D03D120211448FFF7C6FE00
:1009F00021E004211148FFF7BFFE04F0800020B180
:100A000008210E48FFF7BAFE03E008210B48FFF764
:100A1000B3FE04210948FFF7B1FE6006040E012071
:100A200001F07AFD04210548FFF7A6FE08210348DE
:100A3000FFF7A2FE761C082EDBDB70BD0010024023
:100A4000552806D11749096841F00101154A11607E
:100A500027E014490968012908D1532806D1114912
:100A6000096841F002010F4A11601AE00D49096856
:100A7000032911D10C490A680968491C0A4B1960FD
:100A80000A4988541946096806290AD100211A46DC
:100A90001160044A116004E00021024A1160024A18
:100AA00011607047BC010020B8010020B001002097
:100AB0007047000070B5002100230F22C4781CB3DA
:100AC000174C246804F4E064C4F5E064C4F307211F
:100AD000C1F10404E3B20A4144789C40E1B2847855
:100AE000144021430C07210E0E4C05786155047803
:100AF00004F01F050124AC4005786D11AD0005F12F
:100B0000E025C5F8004109E0047804F01F05012440
:100B1000AC40054D0678761145F8264070BD0000C2
:100B20000CED00E000E400E080E100E00249014358
:100B3000024A1160704700000000FA050CED00E069
:100B400070B506460025002415E004F1B001C8B2D6
:100B500000F0BDF8002000F0BAF8102000F0B7F85F
:100B6000002504E0304600F0B9F8681CC5B2802DBD
:100B7000F8DB601CC4B2082CE7DB70BD2DE9F04740
:100B80000446884615464FF000090026002720E05D
:100B9000E85D203800F0FF097E2C04DD002408F118
:100BA000010000F0FF084146204600F07CF80026D6
:100BB00009E009EB4901094A02EB4101885D00F0B7
:100BC0008DF8701CC6B2062EF3DBA01DC4B2781CD3
:100BD000C7B2E85D0028DBD1BDE8F087B036000879
:100BE00010B5FFF7CBFE4FF4FA7001F075FCAE20A4
:100BF00000F06DF8002000F06AF8102000F067F8AF
:100C0000402000F064F8812000F061F8FF2000F03F
:100C10005EF8A12000F05BF8C82000F058F8A6208C
:100C200000F055F8A82000F052F83F2000F04FF8EF
:100C3000D32000F04CF8002000F049F8D52000F057
:100C400046F8802000F043F8D92000F040F8F12069
:100C500000F03DF8DA2000F03AF8122000F037F802
:100C6000DB2000F034F8402000F031F8202000F0C4
:100C70002EF8022000F02BF88D2000F028F8142028
:100C800000F025F8A42000F022F8A62000F01FF8BC
:100C9000AF2000F01CF80020FFF752FF00210846AB
:100CA00000F001F810BD70B504460D4605F1B00125
:100CB000C8B200F00CF8102141EA141000F007F857
:100CC00004F00F0141F0010000F001F870BD10B513
:100CD000044600212046FFF77BFE10BD10B50446F8
:100CE00001212046FFF774FE10BD000029B1064A1D
:100CF00012680243044B1A6004E0034A12688243FC
:100D0000014B1A60704700003038024029B1064A92
:100D100012680243044B1A6004E0034A12688243DB
:100D2000014B1A60704700004038024029B1064A62
:100D300012680243044B1A6004E0034A12688243BB
:100D4000014B1A607047000044380240F0B50021A2
:100D500000220024022500260223324F3F6807F0BC
:100D60000C0121B1042905D0082937D105E02E4F07
:100D7000076036E02D4F076033E02A4F3F1F3F6882
:100D8000C7F38056274F3F1F3F6807F03F036EB100
:100D9000264FB7FBF3F7DFF88CC0ACF1040CDCF89E
:100DA00000C0CCF3881C07FB0CF40CE01E4FB7FB13
:100DB000F3F7DFF870C0ACF1040CDCF800C0CCF342
:100DC000881C07FB0CF4174F3F1F3F68C7F3014710
:100DD0007F1C7D00B4FBF5F7076002E0124F07604F
:100DE00000BF00BF0F4F3F6807F0F0010909104F27
:100DF0007A5C0768D74047600A4F3F6807F4E051C4
:100E0000890A0B4F7A5C4768D7408760054F3F6877
:100E100007F46041490B064F7A5C4768D740C760CA
:100E2000F0BD0000083802400024F40000127A00EF
:100E3000CA01002070B504460026002500BF8021AD
:100E4000174801F053FA0028F9D05721144801F04F
:100E500018FB00BF4021124801F048FA0028F9D0E1
:100E600008E0012001F038FB642E01DD002605E0DA
:100E7000701CC6B20B4800780328F2D100BF0A48A4
:100E800045784FF6FF7000EA05250748807805434E
:100E9000054800782080658000200249087070BDF8
:100EA000001001407B01002078010020014602294A
:100EB0000CD0032913D0042918D005291DD1114ABB
:100EC000126810B200220F4B1A6018E04FF08042F7
:100ED000526A10B200224FF080435A620FE00A4A71
:100EE000126810B20022084B1A6008E0074A126824
:100EF00010B20022054B1A6001E0002000BF00BFC5
:100F000070470000240C00402404004024080040E6
:100F10002DE9F0412DED0C8B05460E46741B294939
:100F20000968022202FB1141274A1268881802F060
:100F3000B6F941EC1B0B254890ED000B53EC102B40
:100F400051EC1B0B02F0C2F941EC190B204602F0E8
:100F5000A6F941EC1D0B1E4890ED000B53EC102B35
:100F600051EC1D0B02F0B2F941EC1B0B154909685D
:100F7000601A02F094F941EC1D0B164890ED000B3D
:100F800053EC102B51EC1D0B02F0A0F941EC1C0BA3
:100F900053EC1B2B01F054FF41EC1A0B53EC192BB3
:100FA00001F04EFF41EC180B02F04AF907460548E4
:100FB000006805490860034804603846BDEC0C8BA6
:100FC000BDE8F081C8000020CC00002060000020B7
:100FD00058000020500000202DE9F0412DED0C8B31
:100FE00005460E46741B29490968022202FB11417D
:100FF000274A1268881802F052F941EC1B0B254869
:1010000090ED000B53EC102B51EC1B0B02F05EF932
:1010100041EC190B204602F042F941EC1D0B1E4831
:1010200090ED000B53EC102B51EC1D0B02F04EF920
:1010300041EC1B0B15490968601A02F030F941ECCC
:101040001D0B164890ED000B53EC102B51EC1D0BB3
:1010500002F03CF941EC1C0B53EC1B2B01F0F0FEB1
:1010600041EC1A0B53EC192B01F0EAFE41EC180B82
:1010700002F0E6F80746054800680549086003489D
:1010800004603846BDEC0C8BBDE8F081D000002038
:10109000D4000020780000207000002068000020AC
:1010A0002DE9F0412DED0C8B05460E46741B2949A8
:1010B0000968022202FB1141274A1268881802F0CF
:1010C000EEF841EC1B0B254890ED000B53EC102B78
:1010D00051EC1B0B02F0FAF841EC190B204602F020
:1010E000DEF841EC1D0B1E4890ED000B53EC102B6D
:1010F00051EC1D0B02F0EAF841EC1B0B1549096895
:10110000601A02F0CCF841EC1D0B164890ED000B74
:1011100053EC102B51EC1D0B02F0D8F841EC1C0BDA
:1011200053EC1B2B01F08CFE41EC1A0B53EC192BEA
:1011300001F086FE41EC180B02F082F807460548E4
:10114000006805490860034804603846BDEC0C8B14
:10115000BDE8F081D8000020DC00002090000020D5
:1011600088000020800000202DE9F0412DED0C8B3F
:1011700005460E46741B29490968022202FB1141EB
:10118000274A1268881802F08AF841EC1B0B2548A0
:1011900090ED000B53EC102B51EC1B0B02F096F86A
:1011A00041EC190B204602F07AF841EC1D0B1E4869
:1011B00090ED000B53EC102B51EC1D0B02F086F858
:1011C00041EC1B0B15490968601A02F068F841EC04
:1011D0001D0B164890ED000B53EC102B51EC1D0B22
:1011E00002F074F841EC1C0B53EC1B2B01F028FEB1
:1011F00041EC1A0B53EC192B01F022FE41EC180BB9
:1012000002F01EF8074605480068054908600348D3
:1012100004603846BDEC0C8BBDE8F081E000002096
:10122000E4000020A8000020A0000020980000207A
:101230000CB50020019000903448006840F48030E4
:101240003249086000BF3148006800F40030009067
:101250000198401C0190009818B90198B0F5A04F72
:10126000F1D12A48006800F4003010B1012000904C
:1012700001E0002000900098012846D1234840302A
:10128000006840F0805021494031086020480068E3
:1012900040F440401E4908601C48083000681B4963
:1012A000083108600846006840F4004008600846BD
:1012B000006840F4A05008601648091F0860081F25
:1012C000006840F08070091F086000BF0F48006888
:1012D00000F000700028F9D040F205700E49086057
:1012E0000A480830006820F0030008490831086007
:1012F0000846006840F00200086000BF034808305C
:10130000006800F00C000828F8D10CBD003802403D
:101310000070004008544007003C0240042808D1F7
:101320004FF0E021096941F004014FF0E022116122
:1013300007E04FF0E021096921F004014FF0E022BD
:101340001161704710B501F0F9FB012801D001F0DF
:10135000DBFB10BD10B51548006840F47000134960
:1013600008601348006840F001001149086000203F
:101370000F49083108600E4800680E4908400C49C2
:1013800008600D48091D0860081F006820F48020CF
:10139000091F0860002006490C310860FFF748FF6C
:1013A0004FF0006001498039086010BD88ED00E011
:1013B00000380240FFFFF6FE10300024F0B50C4666
:1013C000154600210022068C4FF6FE773E4006842B
:1013D000018B028C4FF60C7631407E1C06EA031618
:1013E0002E4331434FF6F576324044F00106324346
:1013F00001830284F0BDF0B50C46154600210022A1
:101400000026078C4FF6EF7C07EA0C070784018B58
:10141000028C4FF6FF7707EA041640F6FF47394083
:101420004FF6FF7707EA033739434FF6FF7707EAAE
:10143000052739434FF65F773A4046F010073A43A5
:1014400001830284F0BDF0B50C4615460021002250
:101450000026078C4FF6FF6C07EA0C070784818B88
:10146000028C4FF6FF7707EA04264FF60C773940D7
:101470004FF6FF7707EA03172F4339434FF2FF5721
:101480003A4046F480773A4381830284F0BDF0B558
:101490000C461546002100220026078C4EF6FF7CE4
:1014A00007EA0C070784818B028C4FF6FF7707EA67
:1014B000043640F6FF4739404FF6FF7707EA052725
:1014C00039434FF6FF7707EA0337394345F6FF778D
:1014D0003A4046F480573A4381830284F0BD0000CD
:1014E00000B589B001210846FFF710FC0121032057
:1014F000FFF7FCFB4FF40040019003208DF809003A
:1015000002208DF8080001208DF80A008DF80B00EC
:1015100001A92B48FFF7C5F80820019003208DF89A
:10152000090002208DF8080001208DF80A008DF8CE
:101530000B0001A92348FFF7B4F801220F2120482E
:10154000FFF7F7F8012203211E48FFF7F2F806A87B
:1015500000F0C4FD0020ADF818004FF6FF700790B2
:101560000020ADF82000ADF81A0006A94FF0804029
:1015700000F072FD00231A4603214FF0804000F076
:101580007EFB03A800F0DCFB0A20ADF8140003A9E1
:10159000400700F09EFB0121880700F04FFB01226D
:1015A0001146900700F0D5FB00214FF0804000F07D
:1015B00024FD0121880700F047FB09B000BD0000B1
:1015C000000002400004024000B589B00121022061
:1015D000FFF79CFB01210846FFF788FBC020019024
:1015E00003208DF8090002208DF8080001208DF8F5
:1015F0000A008DF80B0001A92048FFF752F80222DB
:1016000006211E48FFF795F8022207211B48FFF725
:1016100090F806A800F062FD0020ADF818004FF623
:10162000FF7007900020ADF82000ADF81A0006A961
:10163000134800F011FD00231A460321104800F062
:101640001EFB03A800F07CFB0A20ADF8140003A9E0
:101650000B4800F03EFB0121094800F0EFFA01229F
:101660001146074800F075FB0021054800F0C5FC55
:101670000121034800F0E8FA09B000BD0000024073
:101680000004004000B589B001210420FFF73EFBB3
:1016900001210220FFF72AFBC020019003208DF8D2
:1016A000090002208DF8080001208DF80A008DF84D
:1016B0000B0001A92048FEF7F4FF022206211E4874
:1016C000FFF737F8022207211B48FFF732F806A878
:1016D00000F004FD0020ADF818004FF6FF700790F1
:1016E0000020ADF82000ADF81A0006A9134800F05C
:1016F000B3FC00231A460321104800F0C0FA03A8E7
:1017000000F01EFB0A20ADF8140003A90B4800F0FE
:10171000E0FA0121094800F091FA01221146074838
:1017200000F017FB0021054800F067FC0121034889
:1017300000F08AFA09B000BD000402400008004031
:1017400000B589B001210820FFF7E0FA0121084621
:10175000FFF7CCFA032001908DF8090002208DF8E4
:10176000080001208DF80A008DF80B0001A921481E
:10177000FEF797FF022200211E48FEF7DAFF022241
:1017800001211C48FEF7D5FF06A800F0A7FC0020A9
:10179000ADF818004FF6FF7007900020ADF820005C
:1017A000ADF81A0006A9144800F056FC00231A46AA
:1017B0000321114800F063FA03A800F0C1FA0A20DF
:1017C000ADF8140003A90C4800F083FA01210A487F
:1017D00000F034FA01221146074800F0BAFA00215D
:1017E000054800F00AFC0121034800F02DFA09B079
:1017F00000BD000000000240000C004010B52DEDBF
:10180000088BCC48FFF716FBFF2000F06BFFAA20E7
:1018100000F068FF272000F065FF3F2000F062FF26
:10182000002000F05FFFC4480079C349497940EACD
:101830000120C24908600846006801F030FD41EC13
:101840001B0B9FEDBF0B53EC102B01F03FFD41EC48
:101850001A0B9FEDBD0B53EC102B01F099FB41ECE3
:10186000190B9FEDBB0B53EC102B01F02FFD41EC3E
:10187000180B01F0B3FAB84908600020AF490860BE
:101880000121B64800F01CFA40B13220B44908608A
:10189000B4490860B4490860B44908600520FFF7FE
:1018A00005FBB34908600220FFF700FBB14908605F
:1018B0000320FFF7FBFAB04908600420FFF7F6FAAF
:1018C000AE490860A64800684FF4A561484341F25C
:1018D000707190FBF1F42146A5480068FFF718FBF2
:1018E000A74908609F4800684FF4A561484341F24A
:1018F000707190FBF1F421469E480068FFF76CFB85
:10190000A0490860984800684FF4A561484341F237
:10191000707190FBF1F4214697480068FFF7C0FB17
:1019200099490860914800684FF4A561484341F225
:10193000707190FBF1F4214690480068FFF714FCA9
:10194000924908608E48006810F1030F03DB8C4851
:101950000068032806DD8E48006889490968084444
:101960008B4908608A48006841F65831884202DD98
:10197000084687490860864800688649884202DA36
:1019800008468349086082480068002807DD012076
:101990008149086000208149C1F8880206E00020E2
:1019A0007D49086001207D49C1F8880278480068B7
:1019B00000F02AFE7A4908607248006810F1030FAF
:1019C00003DB70480068032806DD764800686D492F
:1019D00009680844734908607248006872490968D8
:1019E0000844724908600846006841F65831884248
:1019F00002DD08466D4908606C4800686549884208
:101A000002DA08466949086068480068002808DD6D
:101A100001206149091D086000206049C1F8940255
:101A200007E000205C49091D086001205B49C1F8FE
:101A300094025E48006800F0E7FD5949091D0860FE
:101A40005148006810F1030F03DB4F48006803287A
:101A500006DD574800684C49096808445449086045
:101A60005348006841F65831884202DD0846504923
:101A700008604F4800684749884202DA08464C49E6
:101A800008604B480068002807DD012049490860CC
:101A900000204949C1F8940206E000204549086049
:101AA00001204549C1F89402414800683C49083189
:101AB00008603648006810F1030F03DB3348006804
:101AC000032806DD3D4800683049096808443B4961
:101AD00008603A48006841F65831884202DD0846FD
:101AE00036490860354800682A49884202DA0846C3
:101AF0003249086031480068002807DD002030497D
:101B0000086001202F49C1F8BC0206E001202C49E1
:101B1000086000202B49C1F8BC0228480068204911
:101B20000C31086001210D4800F08BF8BDEC088BEA
:101B300010BD000030000020B00100203401002062
:101B4000000000000000F03F000000000000E04046
:101B500000000000008066403001002000100040BE
:101B6000180100201C010020200100202401002079
:101B7000380100203C0100204001002044010020E9
:101B8000F8000020FC0000200001002004010020DB
:101B900008010020A8E4FFFF8C0240420000404200
:101BA000340401400C0100205001002058010020A5
:101BB00010010020B0024242000041421401002006
:101BC000AC824042008040421FB501211020FFF747
:101BD0009DF86320029042F2CF00ADF8040000208F
:101BE000ADF80C00ADF8060001A90D4800F034FA7C
:101BF000012211460A4800F0ACF836208DF80000AA
:101C000001208DF801008DF802008DF80300684670
:101C1000FEF750FF0121024800F016F81FBD00003A
:101C20000010004021B1028842F08002028004E0EE
:101C300002884FF67F731A4002807047CA430282BF
:101C40007047CA430282704721B1028842F0010204
:101C5000028004E002884FF6FE731A40028070474B
:101C600031B1B0F8442042F40042A0F8442005E02D
:101C7000B0F84420C2F30E02A0F844207047F0B53B
:101C80000C4615461E460021002200230189028BC6
:101C9000038C4FF6F877394021434FF6FC473A4022
:101CA00040F201173A434FF6DD773B404FF6FF779E
:101CB00007EA06172F433B43018102830384F0BDEB
:101CC00002460020138A0B400BB1012000E00020E7
:101CD000704770B505460C46208850B92389A28804
:101CE00061882846FFF76AFBE188284600F087F9FB
:101CF00025E0208804280AD12389A2886188284603
:101D0000FFF779FBE188284600F082F917E0208888
:101D100008280AD12389A28861882846FFF793FB07
:101D2000E188284600F081F909E02389A2886188CA
:101D30002846FFF7ACFBE188284600F07FF970BD2C
:101D4000002101804180012181800021C180018129
:101D500070471AB183890B43838102E083898B43E7
:101D60008381704770B5002400220023058C4FF654
:101D7000FE7635400584028C8388048B4FF68F7580
:101D80002C40B51E2C400D882C43751E2A408D8991
:101D90002A434D882A43104DA84202D00F4DA84235
:101DA00013D14FF6F7752A40CD892A434FF6FB75BC
:101DB0002A408D882A434FF6FF652B404FF6FF558A
:101DC0002B400D8A2B434D8A2B43838004838D68DF
:101DD0004563028470BD0000000001400004014022
:101DE0000A460021018B4FF6F77319401143018316
:101DF0007047000070B5002400220023058C4FF6C8
:101E0000EF7635400584028C8388048B48F6FF7595
:101E10002C404FF6FF452C400D884FF6FF7606EA22
:101E200005252C434FF6DF752A408D8906EA0515F6
:101E30002A434D8806EA05152A43154DA84202D0CB
:101E4000144DA8421DD14FF67F752A40CD894FF61B
:101E5000FF7606EA05152A434FF6BF752A408D889E
:101E600006EA05152A434FF6FF352B404FF2FF7562
:101E70002B400D8A06EA85052B434D8A06EA850527
:101E80002B43838004838D688563028470BD0000CA
:101E900000000140000401400A460021018B4FF27E
:101EA000FF7319404FF6FF7303EA022319430183BE
:101EB0007047000070B5002400220023058C4FF607
:101EC000FF6635400584028C8388848B4FF68F75BE
:101ED0002C404FF6FC752C400D882C434FF6FF55D7
:101EE0002A408D894FF6FF7606EA05252A434D885C
:101EF00006EA05252A43154DA84202D0144DA842F2
:101F00001DD14FF2FF752A40CD894FF6FF7606EAC4
:101F100005252A434FF6FF352A408D8806EA052518
:101F20002A434EF6FF752B404DF6FF752B400D8A68
:101F300006EA05152B434D8A06EA05152B438380D7
:101F400084838D68C563028470BD00000000014079
:101F5000000401400A460021818B4FF6F7731940B7
:101F6000114381837047000070B5002200230024D4
:101F7000058C4EF6FF7635400584038C8488828B71
:101F800048F6FF752A404FF6FF452A400D884FF668
:101F9000FF7606EA05252A434DF6FF752B408D890D
:101FA00006EA05352B434D8806EA05352B430A4DD5
:101FB000A84202D0094DA84208D14BF6FF752C402B
:101FC0000D8A4FF6FF7606EA85152C4384808283BE
:101FD0008D680564038470BD000001400004014069
:101FE0000A460021818B4FF2FF7319404FF6FF73B1
:101FF00003EA022319438183704741627047028BD1
:102000004FF6F3731A400283028B0A430283704730
:10201000028B4FF2FF331A400283028B4FF6FF739D
:1020200003EA01231A4302837047828B4FF6F3734E
:102030001A408283828B0A4382837047828B4FF2DD
:10204000FF331A408283828B4FF6FF7303EA01232A
:102050001A4382837047000000220288184B98427E
:102060000ED0184B98420BD0B0F1804F08D0164BD1
:10207000984205D0154B984202D0154B984204D196
:102080004FF68F731A404B881A43124B984207D071
:10209000114B984204D04FF6FF431A400B891A4364
:1020A00002804B68C3620B880385054B984202D0BF
:1020B000044B984201D18B7A0386012383827047B7
:1020C00000000140000401400004004000080040FE
:1020D000000C004000100040001400404FF0FF31A1
:1020E00041600021018001814180817270470000C0
:1020F00000B587B04FF48060FEF718FD012108207D
:10210000FEF7F4FD01214804FEF700FE0722052139
:102110002348FEF70EFB072206212148FEF709FBA4
:1021200002208DF8180000208DF81A00602005901C
:1021300001208DF81B0003208DF8190005A918480F
:10214000FEF7AFFA4FF4165001900020ADF81000E2
:102150000C20ADF80E000020ADF80C00ADF80A0020
:10216000ADF8080001A90F4800F01CF901210D4845
:1021700000F0B0F8012240F225510A4800F0EDF8D5
:1021800026208DF8000001208DF8030000208DF836
:1021900001008DF802006846FEF78CFC07B000BD18
:1021A000000C02400044004010B540F22551214887
:1021B00000F0A9F800283BD01E4800F05DF91E4948
:1021C00008701E48008800F4004088BB1B48008847
:1021D00000F4804070B1084600780A2803D000203F
:1021E0001649088024E01548008840F4004013494F
:1021F00008801DE0104800780D2806D10F4800889F
:1022000040F480400D49088012E00B4800780B49EB
:102210000988C1F30D010A4A505408480088401C3F
:102220000649088008460088092801DD002008804A
:1022300010BD0000005000402400002026000020B7
:102240006002002010B540F22551084800F05BF80C
:1022500058B1064800F010F9C1B20548027800787C
:10226000401C034B18700348815410BD00100140FE
:102270007B0100207801002010B540F2255108486C
:1022800000F041F858B1064800F0F6F8C4B2204614
:10229000FEF7D6FB40F22551014800F00CF810BDC6
:1022A0000044004001F40072B2F5007F00D100BF8D
:1022B000CA430280704710B50022002340F66A141A
:1022C000A14200D100BF0A1201249440A3B2DC4312
:1022D000048010BD21B1828942F40052828104E061
:1022E00082894DF6FF731A408281704702460020B2
:1022F000B1F5007F00D100BF13880B400BB1012066
:1023000000E00020704770B502460024002300253D
:10231000002040F66A16B14200D100BFC1F3421559
:1023200001F01F03012606FA03F3012D02D196895D
:10233000334006E0022D02D1168A334001E0968A2E
:1023400033400C12012606FA04F41688344013B107
:102350000CB1012000E0002070BDF0B50346002460
:1023600000260025002040F66A17B94200D100BFC0
:102370001846C1F3421401F01F06012707FA06F5BB
:10238000012C01D10C3004E0022C01D1103000E00E
:1023900014301AB107682F43076002E00768AF43A3
:1023A0000760F0BD2DE9FF4705460E460024A14613
:1023B00000BFA046B08900B100BF2C8A24F440546D
:1023C000F08804432C82AC8941F20C608443B088CD
:1023D00031890843718908430443AC81AC8A24F4F1
:1023E0004074B0890443AC826846FEF7AFFC2048D5
:1023F000854202D01F48854202D1DDF80C9001E0F1
:10240000DDF80890A88900F4004040B109EBC9004C
:1024100000EB091031684900B0FBF1F707E009EB68
:10242000C90000EB091031688900B0FBF1F76420A6
:10243000B7FBF0F004012009642101FB1078A889A2
:1024400000F4004040B1322000EBC800B0FBF1F0D6
:1024500000F00700044308E0322000EB081064217C
:10246000B0FBF1F000F00F0004432C81BDE8FF87C2
:10247000001001400014014001468888C0F30800A4
:102480007047C1F308028280704700BFFEE700BFBB
:102490007047000070B504460420FEF73FFF0C486B
:1024A000047025464FF47A7045430120094908809D
:1024B0004FF0E020006940F002004FF0E021086199
:1024C00008464561006940F00100086170BD0000E8
:1024D000C0010020C201002070B5044600F02EFBB0
:1024E000012810D00B480088844206D30948008890
:1024F000B4FBF0F5284600F071FA06480088B4FBFA
:10250000F0F100FB11444FF47A7104FB01F000F08C
:1025100003F870BDC201002070B5034600224FF0E1
:10252000E02675690D4E367803FB06F44FF0E02681
:10253000B16910E04FF0E026B06988420BD08842C4
:1025400002D20E1A324402E02E1A0E4432440146E0
:10255000A24200D300E0EDE700BF70BDC001002043
:1025600000BF054A128802F04002002AF9D0C2B228
:10257000014B9A8070470000001001401CB51BA160
:1025800003C9CDE900014FF4A060FEF7CFFAA820FF
:10259000FFF780FFFEF724FB16A11A48FDF7F6FEB1
:1025A000184A02210020FEF7E9FAFEF7EBF840F2A4
:1025B0008F6140F2E730FEF761F94FF4E13000F04F
:1025C000A9F84FF4165000F0FDF8FFF791FDFFF762
:1025D00059F8FEF785FFFEF7F7FFFFF7B1F8642023
:1025E000FFF77AFFFFF7F0FA00BFFEE7FFAA273FE9
:1025F000000000005468652074696D6520697320CF
:1026000020000000240200200146002901DA48428F
:1026100000E00846704700002DE9F04105460E46EF
:102620001C4807681C480068001D00F021F950B9DB
:102630001948006890F82C10012088401749096853
:10264000814316480160681C38B936B112480168E8
:10265000091D134800F03AF91AE07C190E48006889
:102660004460BC4207D20C480168091D0D4800684F
:1026700000F012F90CE008480168091D0A480068DA
:1026800000F00AF909480068844201D20748046052
:10269000BDE8F081F0010020DC010020F401002001
:1026A000A8050020E4010020E00100200C02002029
:1026B0000A490968096809B9012100E0002121B12E
:1026C0004FF0FF31064A116006E004490968C96805
:1026D000C868034A4168116070470000E0010020AB
:1026E0000C02002010B5044640210948FFF7DAFD2E
:1026F00021460748FFF7C5FE00BF40210448FFF709
:10270000F5FD0028F9D040210148FFF7CBFD10BDB1
:102710000044004010B588B0044601210420FEF7B3
:10272000E5FA0121C804FEF7F1FA08220A2123483C
:10273000FDF7FFFF08220B212048FDF7FAFF4FF4B9
:102740004060069002208DF81C0000208DF81E00CD
:1027500002208DF81D0001208DF81F0006A91748E2
:10276000FDF79FFF34208DF8040002208DF805004E
:1027700000208DF8060001208DF8070001A8FEF763
:1027800099F902940020ADF80C00ADF80E00ADF8F8
:102790001000ADF814000C20ADF8120002A9084892
:1027A000FFF700FE012240F225510548FFF7D5FD55
:1027B00001210348FFF78EFD08B010BD000802405C
:1027C000004C004010B588B0044601210846FEF7D1
:1027D0008DFA01211020FEF7A9FA072209212248CB
:1027E000FDF7A7FF07220A211F48FDF7A2FF4FF4BC
:1027F000C060069002208DF81C008DF81D0000209E
:102800008DF81E0001208DF81F0006A91648FDF75F
:1028100048FF02940020ADF80C00ADF80E00ADF8B2
:102820001000ADF814000C20ADF8120002A90F48FA
:10283000FFF7B8FD01210D48FFF74CFD012240F2E2
:1028400025510A48FFF789FD25208DF80400002056
:102850008DF8050001208DF806008DF8070001A80D
:10286000FEF728F908B010BD00000240001001403A
:1028700001460A69D1E901309860D1E90103586045
:102880005068884201D18868506000200861106853
:10289000401E10601068704710B502460B685C1C43
:1028A0000CB9106907E002F1080000E040684468D4
:1028B00024689C42FAD944684C604C68A1608860E6
:1028C00041600A611468641C146010BD42684A606B
:1028D00093688B60936859609160086103685B1C22
:1028E0000360704710B500BF502080F31188BFF31C
:1028F0004F8FBFF36F8F00BF0B480068401C0A4921
:1029000008600846006801280DD108480068C0B278
:1029100008B9012000E0002028B940F2B91204A152
:102920000EA0FDF727FD10BD1802002004ED00E009
:102930002E2E5C4672656552544F535C706F7274F4
:1029400061626C655C525644535C41524D5F434D2D
:1029500034465C706F72742E630000004572726FB3
:10296000723A25732C25640D0A00000010B50B483F
:10297000006828B94FF4E07209A114A0FDF7FAFC31
:1029800006480068401E054908600846006820B9EE
:10299000002080F3118800BF00BF10BD1802002086
:1029A0002E2E5C4672656552544F535C706F727484
:1029B00061626C655C525644535C41524D5F434DBD
:1029C00034465C706F72742E630000004572726F43
:1029D000723A25732C25640D0A00000070B5044678
:1029E0000025ACB10F48006808B9012000E00020C4
:1029F00028B940F2CF420CA110A0FDF7BBFC00F0BB
:102A000027F800212046FFF707FE00F057F905469A
:102A10003DB94FF080500D490860BFF34F8FBFF3B1
:102A20006F8F70BD140200202E2E5C4672656552B9
:102A3000544F535C7461736B732E63004572726FF5
:102A4000723A25732C25640D0A00000004ED00E0A5
:102A500002480068401C01490860704714020020C9
:102A600010B51B48006818B101201A4908602DE014
:102A700000201849086018480068B0FA80F0C0F1DA
:102A80001F0404EB8400154951F8200008B101200F
:102A900000E0002028B940F6F62211A115A0FDF7AC
:102AA00069FC04EB84010D4A02EB8100416849682E
:102AB000416000F1080142688A4202D141684968D8
:102AC00041604168C9680F4A116000BF10BD000035
:102AD0001402002000020020F4010020D80200208F
:102AE0002E2E5C4672656552544F535C7461736B55
:102AF000732E63004572726F723A25732C25640D34
:102B00000A000000DC01002010B500BF502080F357
:102B10001188BFF34F8FBFF36F8F00BF00F01EF817
:102B200018B14FF080500449086000BF002080F3C6
:102B3000118800BF10BD000004ED00E005490968E0
:102B400009B9012005E00449096809B9022000E03B
:102B500000207047F8010020140200202DE9F04108
:102B60004FF0000841480068002872D140480068D2
:102B7000451C3F480560EDB93E480068006808B94B
:102B8000012000E0002028B940F6D9123AA13FA068
:102B9000FDF7F0FB37480768404800683549086092
:102BA0003E4807603E480068401C3D490860FFF70A
:102BB0007FFD00BF3B48006885423CD300BF2D48E5
:102BC0000068006808B9012000E0002020B14FF043
:102BD000FF30344908602DE026480068C068C468AA
:102BE0006668B54202D22F48066023E0201DFFF739
:102BF0003FFEA06A18B104F11800FFF739FE94F8FF
:102C00002C1001208840284909680843264908609B
:102C1000E16A01EB8101254A02EB8100211DFFF7EA
:102C200055FE2349E06A0968C96A8842C7D34FF054
:102C30000108C4E700BF1E480068C06A00EB8000BE
:102C40001A4951F82000012801D94FF0010805E088
:102C5000FFE718480068401C1649086016480068DD
:102C600008B14FF001084046BDE8F0811402002091
:102C7000F0010020E00100202E2E5C4672656552B6
:102C8000544F535C7461736B732E63004572726FA3
:102C9000723A25732C25640D0A000000E40100201F
:102CA000040200200C020020F4010020D8020020C1
:102CB000DC010020FC0100200002002070B500248F
:102CC00000263448006828B94FF4FD6232A137A0CD
:102CD000FDF750FBFFF706FE2E480068401E2D4909
:102CE00008600846006800284FD134480068002872
:102CF0004BD024E03248C068C46804F11800FFF7E4
:102D0000B7FD201DFFF7B4FD94F82C10012088407A
:102D10002C49096808432B490860E16A01EB8101ED
:102D2000294A02EB8100211DFFF7D0FD2749E06A07
:102D30000968C96A884202D30120254908602048F1
:102D4000006808B9012000E000200028D2D00CB1B2
:102D5000FFF7AEFC1F48056865B100BFFFF7FEFE38
:102D600010B101201A4908606D1E002DF6D1002017
:102D7000184908601648006838B10126300716491E
:102D80000860BFF34F8FBFF36F8FFFF7EFFD304643
:102D900070BD0000140200202E2E5C467265655244
:102DA000544F535C7461736B732E63004572726F82
:102DB000723A25732C25640D0A000000EC010020F6
:102DC00080050020F4010020D8020020DC01002052
:102DD00000020020FC01002004ED00E021F0004290
:102DE000A2F16052B2F5801F01F0004328BFD2F17A
:102DF0007F6C0BD95FEA001C43EAC20242EB5070C1
:102E000018BF704728BF20F001007047B2F5801F3F
:102E1000BCBF184670474FEA410C1CF5001F02D298
:102E2000084600F040BC70B500F0FAFA00000089D6
:102E3000FFF7F6BF4FF00040A0F58000704700009C
:102E400010B591EA030F48BF83F0004300F14483BB
:102E5000841A71EB030C05D2121943EB0C03001B0F
:102E600061EB0C01DFF824E14FEA1154A4EB135C91
:102E70001EEA430F18BF9EEA445F73D023EA0E0395
:102E8000DCF1200E21EA045143F4801332D322FAFC
:102E90000CFE10EB0E0023FA0CFE41EB0E01CCF100
:102EA000200E03FA0EFE10EB0E0051F10001B1F5F9
:102EB000801FCCF1200E32D201EB045112FA0EF237
:102EC000BDE8104058BF7047401C38BF5FEA42025F
:102ED00018BF7047002814BF20F0010041F1000125
:102EE0004FEA410313F5001F38BF7047A1F1C041FD
:102EF00000F0E4BA012A43EB0302ACF1200CDCF150
:102F00001F0E32BF4FF0000E23FA0CF310EB03003C
:102F100041EB0451B4EB115FD0D0A1EB045101F5AA
:102F2000801149085FEA300001EB04510ED350F1E3
:102F3000000038BF12FA0EFE08D1BDE81040C9E704
:102F4000401C38BF5FEA4202CAD1C3E7BDE8104067
:102F50004FEA410313F5001F38BF7047A1F1C0418C
:102F600000F0ACBA9EEA445F08D011EA5E0FBDE8FB
:102F7000104004BF01F0004100207047BDE8104040
:102F800070B500F04DFA00BF64FBBE3E0000E0FFEC
:102F90002DE9C04130B4DFF8A0C23CEA111418BFDB
:102FA0003CEA131400F0EC8081EA03051CEA1114DA
:102FB00044EAD57418BF1CEA131500F0C780A4EBCF
:102FC00005044FF0004545EAC12145EAC32341EA23
:102FD000505143EA525304F17F74994204F500348E
:102FE0004FEAC0204FEAC22208BF904200F09C8006
:102FF0004FEA13650FF24016765D4FEA134506FB64
:1030000005F7C7F1807706FB07F74FEAD737A7FB2D
:1030100003687642C8F58038A7FB06CE38BFA8F112
:10302000010807FB08E64FF0000EA6FB028CE6FB4A
:1030300003CEDCF1000CCEF1004E38BFAEF1010E34
:10304000A6FB0C584FF000074FF00005E6FB0E877B
:10305000A1FB08C6A0FB07CE16EB0E0645F1000546
:10306000E1FB076515F1E04E7EBFA4F580345FEA11
:1030700046066D4116F1800745F100054FEA172716
:103080004FEA066647EA0567A6F1DE46B6F1805FBD
:103090004FEA15251FD9384624F0010C05EBC47101
:1030A000BCF1FE6F01EB0C1102D8F0BCBDE8008151
:1030B00024425CBF01F5801E9EEAC47F02D4F0BCAE
:1030C000BDE80081244238D4F0BCA1F1C041BDE884
:1030D000004100F0F3B94FEAD22242EA43524FEAEC
:1030E000D323A7FB02864FEAD02040EA415007FBDA
:1030F00003661EEA0E0F4FEAD12105FB026658BF98
:10310000A6EB0056B6EB00564FEA520E4EEAC37ECF
:1031100018EB0E0E56EB530EBDD518EB02085E41B0
:103120007F1C55F10005B6E74FF480154FF00007FE
:103130004FF000064FF00008ADE7F0BC4FF0000084
:1031400001F1C04101F00041BDE8008111EA0C1F0E
:103150000CEA131500D00CE013EA0C1F00F02580D8
:103160004FF00000F0BC81EA030101F00041BDE82E
:103170000081F0BCBDE8004181EA030100F09EB986
:10318000F0BCBDE8004170B500F04AF9097EFC3E94
:1031900000F007B881EA03014FF0000001F00041A0
:1031A000704781EA030100F089B9F0BCBDE8004135
:1031B0004FF0000021497047FFFDFBF9F7F5F4F2ED
:1031C000F0EEEDEBE9E8E6E4E3E1E0DEDDDBDAD8C2
:1031D000D7D5D4D3D1D0CFCDCCCBCAC8C7C6C5C420
:1031E000C2C1C0BFBEBDBCBBBAB9B8B7B6B5B4B337
:1031F000B2B1B0AFAEADACABAAA9A8A8A7A6A5A422
:10320000A3A3A2A1A09F9F9E9D9C9C9B9A999998E5
:103210009797969595949393929191908F8F8E8E88
:103220008D8C8C8B8B8A8989888887878685858415
:1032300084838382828181800000FF070000F87F01
:103240004FEA41034FEA5353A3F58063D3F11E03C2
:10325000C8BFD3F1210C0CDD4FF0004242EAC1227D
:1032600042EA505232FA03FC8CEAE17CACEBE170AA
:103270007047102BC4BF0020704703F5787CBCF169
:10328000FF3F04D06FF0004282EA2100704770B522
:1032900000F0C6F84992248000207047F2E710F051
:1032A000004248BF4042B0FA80F310FA03F10AD05E
:1032B000C3F11D0303F580634FEA415002EB035253
:1032C00002EBD12170474FF000007047DFF848C192
:1032D00070B51CEA111E1EBF1CEA13159EEA0C0FE6
:1032E00095EA0C0F00F06F8081EA030423EA4C1387
:1032F0004EEAD47E21EA4C1141F4801143F480134C
:10330000AE44A1FB024CA0FB0365AEF17F7E3619F3
:1033100055EB0C05A1FB034C4CF10003A0FB021C78
:1033200016EB0C06654153F10003094218BF46F045
:10333000010613F4007F0BD14FEA03314FEA053049
:10334000340341EA155140EA16506FF003020AE0D7
:103350004FEAC3214FEAC520F40241EA555140EA41
:1033600056506FF0020202EB2E4201EB025585EA45
:10337000CE710AD05FEA440C18BF24F0004450F12B
:10338000000041F1000120EAD47040F2FE7C624569
:1033900000D270BDA84214BF4FF080444FF04044AB
:1033A000002E08BF0024BEF1806FA8BFA1F1C0416C
:1033B000BDE8704080F282804FF0000001F1C04112
:1033C00001F0004170479EEA0C0F0CEA131518BF7C
:1033D00095EA0C0F06D04FF0000081EA030E0EF0C4
:1033E000004170BD00F01CF88900013E00F007B8F4
:1033F00000F009B84FEA430C5FEA5C5C08D081EA50
:10340000030100F05BB84FEA410C5FEA5C5CF6D167
:103410004FF00000014970470000FF070000F87FEF
:103420000EF1020E2EF0030E5EF8046B364205D448
:10343000012A43EB030515F5001F12D8012841EBC3
:10344000010C1CF5001F0CD80ED14FEAD17C15F5EC
:10345000001F0CEB4C0C0CF1020C08BF4CEBD37CA6
:1034600004E04FF0080C01E04FEAD37C0CEB4C0574
:1034700026FA05F606F00706B6F1040C06D20EEBA6
:10348000860CBDE870404CF0010C6047DFE80CF0A2
:10349000090B02024FF000414FF00000A1F500219E
:1034A00070BD19461046012851EB010418BFD4F530
:1034B000001484BF002001F0004170BD0808A0F591
:1034C00000114FEA3101704710B591EA030F48BF70
:1034D00083F000433FF5BCAC841A71EB030C07D2B8
:1034E00012198CF0004C43EB0C03001B61EB0C0138
:1034F000DFF8A4E14FEA1154A4EB135C1EEA430F7A
:1035000018BF9EEA445F00F0B08023EA6E03524287
:1035100021EA0451C3EB6E0338BF5B1EDCF1200EC1
:1035200025D322FA0CFE10EB0E0043FA0CFE41EB01
:103530000E01CCF1200E03FA0EFE10EB0E0051F13D
:103540000001CCF1200E29D412FA0EF201EB045145
:10355000BDE8104058BF7047401C1CBFB2F1004F7F
:10356000704700280CBF491C20F00100704712EB87
:10357000020E43EB030218BF4FF0010E4EEA420267
:10358000ACF1200CDCF11E0E54D943FA0CFE10EB0A
:103590000E0051F1FF31CCF11E0ED5D50EF1010E0A
:1035A00012FA0EFE404141EB010101EB445C5FEA7F
:1035B0005C5C10D910EBDE7001EB045138BFBEF13A
:1035C000004FBDE8104018BF704700280CBF491CD1
:1035D00020F00100704730D24FEAD42C11F50011D1
:1035E00024F400641BD0B1FA81F20B3AA41AA41E91
:1035F000D2F12003914030FA03F31943904001EBDC
:10360000CC71002C01EB0451BDE81040A8BF7047FD
:1036100001F1C0414FF0000001F000417047B0FAE5
:1036200080F310FA03F100D110BDE41A173C4805ED
:10363000C90AE4E701EB045110BD491001EB045144
:10364000BDE810404FEA300002E04FF00001704743
:103650004A0008BF0042F8D0B2F5001F28BF7047EB
:1036600001F000414FF0000070479EEA445F07D030
:1036700011EA5E0FBDE8104004BF00210020704732
:10368000BDE8104070B5FFF7CBFE00BF40DFF63E4F
:1036900083F00041104670470000E0FF4FF040709B
:1036A000E1EE100A7047FF2141EAD050C005704793
:1036B0000000000000000000002F000000000700D4
:1036C000070000147F147F1400242A7F2A1200624E
:1036D00064081323003649552250000005030000FA
:1036E00000001C224100000041221C000014083E82
:1036F00008140008083E0808000000A06000000848
:10370000080808080000606000000020100804029B
:10371000003E5149453E0000427F40000042615159
:103720004946002141454B31001814127F100027F3
:1037300045454539003C4A494930000171090503B6
:1037400000364949493600064949291E00003636E7
:10375000000000005636000000081422410000144A
:103760001414141400004122140800020151090627
:1037700000324959513E007C1211127C007F4949A8
:103780004936003E41414122007F4141221C007FD9
:1037900049494941007F09090901003E4149497AE7
:1037A000007F0808087F0000417F41000020404161
:1037B0003F01007F08142241007F40404040007FCD
:1037C000020C027F007F0408107F003E4141413E11
:1037D000007F09090906003E4151215E007F091959
:1037E00029460046494949310001017F0101003F56
:1037F0004040403F001F2040201F003F4038403FD6
:103800000063140814630007087008070061514939
:10381000454300007F41410000552A552A550000CC
:1038200041417F000004020102040040404040404A
:10383000000001020400002054545478007F4844E2
:10384000443800384444442000384444487F003819
:103850005454541800087E0901020018A4A4A47C42
:10386000007F080404780000447D4000004080840C
:103870007D00007F102844000000417F4000007C54
:1038800004180478007C0804047800384444443860
:1038900000FC242424180018242418FC007C0804AC
:1038A000040800485454542000043F444020003C85
:1038B0004040207C001C2040201C003C4030403C0C
:1038C000004428102844001CA0A0A07C004464549C
:1038D0004C44141414141414F83800080000002088
:1038E00024020000C401000844390008240200201A
:1038F000FC09000020020008013D0218FF63374068
:1039000073F03F59102D2A40CDCC015AEC18692094
:103910005A352069285AE018FA36183A33016AF302
:1039200058112B9A99017AB9100148DA28040178C4
:10393000022DFF2D0102030404053E060708091AA3
:04394000AA01810057
:040000050800018965
:00000001FF
